:020000040800F2
:10000000000003207D06000861220008632200082A
:10001000652200086722000869220008000000002D
:10002000000000000000000000000000118E000829
:100030006B22000800000000A18E0008098700085C
:10004000CD060008CD060008CD060008CD06000844
:10005000CD060008CD060008CD060008CD06000834
:10006000CD060008CD060008CD060008CD06000824
:10007000CD060008CD060008CD060008CD06000814
:10008000CD060008CD060008CD060008CD06000804
:10009000CD060008CD060008CD060008CD060008F4
:1000A000CD060008CD060008CD060008CD060008E4
:1000B000CD060008CD060008CD060008CD060008D4
:1000C000CD060008CD060008CD060008CD060008C4
:1000D000CD060008CD060008CD060008CD060008B4
:1000E000CD060008CD060008CD060008CD060008A4
:1000F000CD060008CD060008CD060008CD06000894
:10010000CD060008CD060008CD060008CD06000883
:10011000CD060008CD0600086D220008CD060008B7
:10012000CD060008CD060008CD060008CD06000863
:10013000CD060008CD060008CD060008CD06000853
:10014000CD060008CD060008CD060008CD06000843
:10015000CD060008CD060008CD060008CD06000833
:10016000CD060008CD060008CD060008CD06000823
:10017000CD060008CD060008CD06000800000000EE
:10018000CD060008CD060008CD060008CD06000803
:10019000CD060008CD060008CD060008CD060008F3
:0C01A00079220008CD0600088522000826
:1001B00010B5054C237833B9044B13B10448AFF3A1
:1001C00000800123237010BDC00300200000000048
:1001D000945F020808B5034B1BB103490348AFF312
:1001E000008008BD00000000C4030020945F0208E6
:1001F00010F8012B11F8013B012A28BF9A42F7D0D1
:10020000D01A70470000000000000000000000004D
:1002100001F0FF01102A2BDB10F0070F08D010F8B7
:10022000013B013A8B422DD010F0070F42B3F6D1BB
:10023000F0B441EA012141EA014122F007047FF0D4
:1002400000070023F0E80256083C85EA010586EA2B
:10025000010685FA47F5A3FA87F586FA47F6A5FA67
:1002600087F68EB9EED1F0BC01F0FF0102F0070273
:1002700032B110F8013B013A83EA010313B1F8D11E
:100280000020704701387047002D06BF35460338FF
:10029000073815F0010F07D1013015F4807F02BF38
:1002A000013015F4C03F0130F0BC0138704700BF89
:1002B0007BB972B90029BEBF00204FF0004106E0B3
:1002C00008BF00281CBF6FF000414FF0FF3000F066
:1002D000D3B9ADF1080C6DE904CE002909DB002B80
:1002E0001ADB00F04DF8DDF804E0DDE9022304B08C
:1002F0007047404261EB4101002B1BDB00F040F8EE
:10030000DDF804E0DDE9022304B0404261EB410185
:10031000524263EB43037047524263EB430300F0E6
:100320002FF8DDF804E0DDE9022304B0404261EB80
:1003300041017047524263EB430300F021F8DDF8BE
:1003400004E0DDE9022304B0524263EB430370474B
:1003500053B94AB9002908BF00281CBF4FF0FF312C
:100360004FF0FF3000F088B9ADF1080C6DE904CE14
:1003700000F006F8DDF804E0DDE9022304B0704780
:100380002DE9F047089D8E4604468846002B4AD149
:100390008A42174662D9B2FA82F64EB1C6F12003FC
:1003A00001FA06F820FA03F3B74043EA0808B4401C
:1003B0004FEA174E1FFA87FCB8FBFEF1230C0EFB29
:1003C000118843EA084301FB0CF29A4209D9FB1851
:1003D00001F1FF3080F0EA809A4240F2E780023972
:1003E0003B449A1AA3B2B2FBFEF00EFB102243EA82
:1003F000024300FB0CFC9C4509D9FB1800F1FF32BD
:1004000080F0D6809C4540F2D3803B44023840EADD
:100410000140A3EB0C0300211DB1F3400022C5E90C
:100420000032BDE8F0878B4205D90DB1C5E9000166
:1004300000210846F5E7B3FA83F1002946D1734558
:1004400002D3824200F20581841A6EEB030201207E
:100450009046002DE5D0C5E90048E2E7002A00F00B
:100460009080B2FA82F6002E40F0A4808A1A030C23
:100470004FEA174E80B2BCB20121B2FBFEFC0EFB6C
:100480001C2243EA024304FB0CF29A4207D9FB18F0
:100490000CF1FF3802D29A4200F2E080C4469B1A67
:1004A000B3FBFEF20EFB123340EA034302FB04F4FB
:1004B0009C4207D9FB1802F1FF3002D29C4200F2A5
:1004C000CA8002461B1B42EA0C40A5E7C1F1200688
:1004D0008B4022FA06F71F430EFA01F420FA06F3C6
:1004E0002EFA06FE4FEA1749234300FA01F81FFAD5
:1004F00087FCBEFBF9F01C0C09FB10EE44EA0E442D
:1005000000FB0CFEA64502FA01F209D93C1900F1E4
:10051000FF3A80F09C80A64540F2998002383C4426
:10052000A4EB0E041FFA83FEB4FBF9F309FB13449A
:100530004EEA044403FB0CFCA44508D93C1903F122
:10054000FF3E80F08280A4457FD9023B3C4443EAD1
:100550000040A4EB0C04A0FB02EC64457346E146AA
:1005600062D35FD05DB1B8EB030264EB090404FA17
:1005700006F622FA01F31E43CC40C5E900640021CF
:100580004FE7B1FBF2FC010C41EA0E4180B240EAB8
:1005900001423B4638463C46B846BE462026B1FBA3
:1005A000F7F1A2EB080241EA0C4166E7014618E7C1
:1005B00010462CE7C6F120022EFA02F3B740B140F4
:1005C00020FA02F24FEA174E0A43B3FBFEF8BCB220
:1005D0000EFB1833110C41EA034108FB04F9B0404B
:1005E00089454FEA104380B23ED9791808F1FF3CA3
:1005F00001D289451FD8A1EB0901B1FBFEF909FB26
:1006000004F80EFB191192B242EA0142424529D286
:10061000BA1809F1FF31C4D24245C2D2A9F1020190
:100620003A44BEE7F0459DD2BEEB02036CEB070CEB
:100630000138E14696E7A7EB09094944A8F1020C05
:10064000B1FBFEF909FB04F8DBE773467FE7504690
:1006500066E70846FDE63B44023A33E7ACF1020C9C
:100660003B441CE749469CE7A1EB0901C446B1FBAA
:10067000FEF909FB04F8C4E7704700BFDFF834D087
:10068000002103E00C4B5B58435004310B480C4BEA
:1006900042189A42F6D30B4A02E0002342F8043B88
:1006A000094B9A42F9D305F0B1FD24F005FF01F0A2
:1006B00079F8704700000320B0920E080000002077
:1006C000A8010020C0030020B0390120FEE77047D8
:1006D00008B500F0B9FDBDE8084000F03DBD00F0F0
:1006E000B5BD704710B50421044623F0F9FC20463F
:1006F00010BD000038B50C4B0C4C18800C4B822000
:1007000019806368984740F6110398420AD1094D51
:1007100023682C60822098472B688220DB689847EA
:10072000002038BD0120FCE7E603002090000020F7
:10073000E4030020E80300204FF4A071F020FFF74D
:10074000D9BF0000F7B5394D2B6804461B698220DC
:100750009847208000284ED02B680DF106025B6977
:1007600001A982209847324B1B78002B4BD0BDF853
:10077000062040F674639A423FD9ADF80630BDF8C2
:1007800006209B1A9BB20A2B42D90B22B3FBF2F331
:10079000284A1288934201D9013A93B2BDF8042045
:1007A000254840F6B8318A4234D8C2F571620E321B
:1007B000016892B20F25B2FBF5F2204D2D88AA42B6
:1007C00084BF05F1FF35AAB28A4215468EB22AD9F6
:1007D000921B91B21A4E3768BB42BAB28CBF9A1ABA
:1007E000D21A92B211440529C4BF05603360036870
:1007F00063803368A38003B0F0BDB32A9CBFB422EA
:10080000ADF80620BBE7BDF80630A3F5B473B9E731
:100810000023C3E7C2F56D62083292B20E2A016866
:10082000C8D800252A46891A89B2D3E7E8030020F0
:10083000201B0020E4030020E0030020E60300204A
:10084000DC03002037B568460D461446FFF77AFFF3
:10085000BDF8000030B1BDF802302B60BDF80430A7
:100860002360012003B030BD032821D8DFE800F069
:10087000020B12190F4B1A68B2FA82F252090421C4
:100880000D4805F057BF0B4B5A68B2FA82F2520975
:100890000821F5E7074B9A68B2FA82F25209102153
:1008A000EEE7044BDA68B2FA82F252092021E7E758
:1008B000704700BFEC03002000100240032821D83D
:1008C000DFE800F0020B12190F4B1A68003A18BF4C
:1008D000012204210D4805F02DBF0B4B5A68003A48
:1008E00018BF01220821F5E7074B9A68003A18BFA4
:1008F00001221021EEE7044BDA68003A18BF01220A
:100900002021E7E7704700BFEC0300200010024001
:1009100003280DD8DFE800F00206080A0421054884
:1009200005F00DBF0821FAE71021F8E72021F6E7CE
:10093000704700BF0010024008B5032811D8DFE857
:1009400000F0020A0C0E0421074805F0EDFE431EDC
:100950005842584108BD0821F6E71021F4E720214C
:10096000F2E70020F3E700BF0010024070B5084D29
:1009700000240126E0B2FFF7DFFF18B12B68012B3E
:1009800018BF2E600134052C05F10405F2D170BDAD
:10099000EC030020012380F8781080F8793070474C
:1009A0007047002070470000034B4164003918BFB6
:1009B00001211970704700BF6F2C01207047002083
:1009C0007047836B0BB10846184770474FF6FF70AE
:1009D0007047406803689B691847704770477047C5
:1009E0007047704710B5044600F046FD2368034980
:1009F000D3F890302046BDE810401847000000D0E2
:100A000008B503680446D3F8843098472368204625
:100A1000DB6F984700F0ECF8236820465B6F98473F
:100A2000292001F03DF900F0E3F8236820465B6FD0
:100A30009847F8E710B504460BF0AAFA2368204659
:100A4000D3F8BC30BDE81040184700F0F9BC00F006
:100A5000FDBC00F02FBD00F0CFBC00F03FBD00F0AA
:100A600047BD00F0D3BC0AF0C1BC10B584210446D8
:100A700023F036FB204610BD10B590F8341090F8E6
:100A800078400C4B8C421A7809D03AB90A4A0B4983
:100A90001488088810800C8001221A7010BD002A6A
:100AA000FCD0054A05491488088810800C80002273
:100AB000F3E700BF682C0120642C0120662C012084
:100AC00070B50D46194635B9094B0A4A0A4840F235
:100AD000FF2124F041FAC0E90F52084B003A18BF39
:100AE00001221A700368BDE87040D3F890301847AF
:100AF0001060020848600208966002086E2C01200F
:100B000008B5094B1B888B4203D8084B1B889342BE
:100B100005D9074B074A0848A32124F01DFA074BC3
:100B20001980074B1A8008BD642C0120662C012017
:100B3000DB6002083E610208966002086A2C012010
:100B40006C2C0120034690F87A0018B158680368AD
:100B50001B68184770470000012108B500220846AD
:100B600007F063FE0A4B186028B90A4B0A4A28218D
:100B70000A4824F0F1F900220421012007F0F4FED4
:100B8000074B186018B9074B034A2C21F0E708BD42
:100B90000004002081610208CA610208F9610208AC
:100BA000FC03002047620208024B4FF0FF31186837
:100BB00007F085BE00040020014B186807F0ABBEAB
:100BC00000040020024B0021186807F078BE00BF27
:100BD00000040020FFF7F0BF034804490068002329
:100BE0001A4607F0FCBE00BFFC03002004000020F2
:100BF00013B5084C00231A4601A9206807F020FF0E
:100C000020684FF0FF33002201A907F019FF02B05E
:100C100010BD00BFFC03002003685B6C1847012077
:100C2000704703689B6A1847FEE740F2EF30704751
:100C3000054B0360054B4FF08062C3F88820BFF37B
:100C40004F8FBFF36F8F7047E471020800E100E03F
:100C500010B504464FF45A61FFF7EAFF204623F02F
:100C60003FFA204610BD000082B0002301930E4BD6
:100C70001A6B42F400021A631A6B02F4000201922A
:100C8000019A1A6942F400021A611A6922F40002F8
:100C90001A61064B064A1A61064A5A61064B4FF022
:100CA00080629A6002B0704700380240C81C002081
:100CB000090F0008290C000800E100E008B50A2827
:100CC00009D8DFE800F006100E0808080810101018
:100CD0001000022008BD054B054A0648902124F06B
:100CE0003BF90020F6E70120F4E700BF8962020823
:100CF000A4620208EF62020838B50C46887FFFF74D
:100D0000DDFFA58AE28A164B2169586342EA054253
:100D10005A64628BD963521B1A642568082D0ED160
:100D20009A611A615862207F0E4A42EA0062DA61D3
:100D3000E2681A620C4A5961D9601A6038BD002213
:100D4000D8611A61E1680A0A480902F4784200F49D
:100D5000FC600243C1F3C4010A439A63034AECE70F
:100D600000B002400900010001230200012303003A
:100D700008B50B280BD8DFE800F00612100A0A0AA3
:100D80000A0808080808022008BD0520FCE7054BF2
:100D9000054A06486F2124F0DFF80020F4E701201F
:100DA000F2E700BF896202083B630208EF620208B3
:100DB0002DE9F04191F81D800C464046FFF7D8FF21
:100DC000A77F05463846FFF7D3FF06463846FFF7AC
:100DD00075FFA18A628B444B521A1A649A61228B66
:100DE000521A1A61E28A586342EA01425A6421693E
:100DF0006268D963DA602068802828D0227F0FD803
:100E0000202867D0402865D004281AD0364B45EA00
:100E1000026545F40035B845DD6161D0334A44E0F0
:100E2000B0F5807F04D0B0F5007FEFD1304800E00E
:100E3000304840EA0262DA61E2681A625E62596131
:100E400032E045EA026242F40032DA61F6E7A06875
:100E5000021DDA62227F45EA026545F40035DD6154
:100E60005E625961017841B1012921D0224B234AA8
:100E700023484FF48D7124F06FF8DA69418822F429
:100E80007F42013922F0100242EA0122DA61012197
:100E9000154BDA6942F02002DA61DA699206FCD475
:100EA00010229A600029B9D0164A1A60BDE8F08174
:100EB000B2F1FF01DA69408822F47F4200F1FF308D
:100EC00022F0100242EA002242F0100218BF012173
:100ED000DA61DDE745EA0262034B42F40032B4E72F
:100EE00042F20132E1E700BF00B0024001230100FD
:100EF000090002000A000200856302089F630208DD
:100F0000EF62020801230200024B1B685868036865
:100F10005B691847702C012070B5044625460A4BC2
:100F20000C30002660602672667245F8203B602215
:100F300029460BF083F904F55A63EE6024359D428F
:100F4000FBD1204670BD00BFE4710208034B1A6854
:100F5000D207FCD423229A60704700BF00B0024041
:100F60007047000030B50F4C2568ED07FCD42325F1
:100F70000904A56041F001010225FF2B656361644E
:100F8000E0630AD00849656241EA0363E361074B05
:100F900022626061E060236030BDE561039BA36372
:100FA000034BF8E700B00240090001000100020015
:100FB0000100030030B50E4C2568ED07FCD4232555
:100FC0001204A56042F001020225FF2B65636264F2
:100FD000E063E16008D01B0643F00213E361054BB8
:100FE00065626061236030BD034BE3610123F9E773
:100FF00000B0024001000200020002FF30B50B4CBD
:101000002568ED07FCD4232512041B06A56043F4D4
:101010000033022542F0010265636264E063E1602F
:10102000E361034B65626061236030BD00B0024044
:1010300001000200012070474020704700EB811042
:101040000830704700EB811008307047012070476E
:101050004FF4B36070474FF4B36303FB01000830F3
:1010600070474FF4B36303FB010008307047012061
:1010700070471020704700EB01100830704700EBFC
:10108000011008307047084601F07ABB10B5034BD9
:101090000360044609F03FFC204610BD9C72020824
:1010A00010B50446FFF7F2FF2046482123F018F858
:1010B000204610BD10B5034B0360044609F02BFC1D
:1010C000204610BD6872020810B50446FFF7F2FF13
:1010D00020464FF4B46123F003F8204610BD000011
:1010E00010B5034B0360044609F015FC204610BD03
:1010F0003472020810B50446FFF7F2FF20461821AB
:1011000022F0EEFF204610BD10B5084B03600446E8
:1011100000F2CC50FFF7BAFF04F12C00FFF7CAFF32
:1011200004F11400FFF7DCFF204610BDD072020866
:1011300008B50248FFF7E8FF08BD00BFDC12002039
:1011400010B50446FFF7E0FF204640F27C7122F024
:10115000C7FF204610BD00002DE9F34101F01AF948
:10116000054601F01BF90024014623462846224685
:10117000009413F003FF274B274A1A60204603F020
:1011800079FE264D264B274A27489A6013F05EFECB
:101190002B68BFF35B8FDB0735D4284622F0A2FF14
:1011A00088B3224C224B236004F5C46604F114007A
:1011B00004F12C0804F2CC576060C4F80880E760A2
:1011C000266109F0A9FB1B4B6361404609F0A4FBB3
:1011D000194BE362384609F09FFB184BC4F8CC3535
:1011E00004F2146003F0D6FE224604F21461304685
:1011F00003F0C6FE304601F0C3FA114823F0CAFEE0
:10120000284622F07BFF0F4802B0BDE8F041FFF70F
:10121000E9BB00BFD42C012088040020D812002094
:10122000A80400208C04002008000020DC1200200C
:10123000D072020834720208687202089C720208B6
:101240003111000804040020704700000148FFF736
:10125000D7BB00BF0404002070B5264E264C274D96
:10126000274B23603046FFF757FE284618F08CFFC7
:10127000244811F0A7FA244B2448DC6000224FF4E4
:101280008071C3E9121222491A86C3E91A12214950
:1012900083F85820C3E91E011F49C3F880101F4975
:1012A0001F480B60F021C3E90422C3E90622C3E909
:1012B0000822C3E90A22C3E90E22C3E91022C3E9C6
:1012C0001422C3E917225A6683F870205A67C3E9CB
:1012D000016501801348018013484FF4A07101801B
:1012E0001248018012490A70012283F83420114A01
:1012F0001A6070BD34050020D4120020A80400201C
:10130000006002088C040020040400200000010199
:1013100001000001000450001A001400702C01208C
:10132000642C01206A2C0120662C01206C2C0120E9
:10133000682C0120F87002080148FFF779BC00BF53
:10134000340500200020704781807047C1807047BD
:1013500001817047418170477047704770477047FF
:10136000704710B4C4880368121B84885B6D091B26
:1013700012B25DF8044B09B218474FF6FF73838130
:101380004FF0FF3303621368C361106070470020A1
:1013900070478B88838001207047704780F8261043
:1013A000704790F82600704710B50022B1F9084048
:1013B000B1F90A10028042808480C18010BD0022F1
:1013C000028042808280C28070470177704780ED42
:1013D000080A704780F82410704780F8251070477D
:1013E00001207047983070478C30704784307047C8
:1013F0007047704770470000034B902283F85A23D0
:1014000083F85823704700BF00E100E0094A0A4909
:10141000D3680A48C3F30A03013B9BB20B801169EE
:10142000C1F30A01013901801364536B43F00103D6
:1014300053637047006801405A1A0020581A002070
:10144000014BD3F8AC00704700680140024B012209
:10145000C3F8AC105A6270470068014010B52C21E7
:10146000044622F03DFE204610BD10B5BC210446C6
:1014700022F036FE204610BD70B504460AF00BF887
:1014800023689D6E0FF0ECFE01462046A8472368B6
:10149000054AD3F88C502046AC460023BDE8704086
:1014A000A2F51631604700BF00B004D009F0DABFE2
:1014B00009F0E4BF09F0A0BF0AF00FB990F82520A9
:1014C00012B103685B691847704790F825201AB17C
:1014D00090F8242002B1186070470000034B4FF0D1
:1014E00080629A604FF080729A60704700E100E07D
:1014F000084B4FF08062C3F88820BFF34F8FBFF3D3
:101500006F8F4FF08072C3F88820BFF34F8FBFF307
:101510006F8F704700E100E070B50023124E8380AA
:10152000124B0360336893F8582005460AB1D86C13
:1015300000B998680368DB6A98473368B0FA80F4AA
:10154000D86C640930B10368DB6A9847002808BF8B
:1015500044F001042CB9064B064A07482C2123F01D
:10156000FBFC284670BD00BF702C0120E47202080D
:10157000DD6302083B6402087464020870B5254EFE
:101580003568BFF35B8F15F0010540D1304622F07E
:10159000A9FD00283BD0204C204B256104F13400EC
:1015A000C4E90035C4E90255E584A562A58511F0BA
:1015B000EEFB04F158000CF0F7FA194BA365204636
:1015C000184B40F8843BFFF7A7FF174BC4F8843053
:1015D0002433C4F88C304FF4C803C4E92835002301
:1015E000C4F8AC30C4F8B030C4F8B430C4F8B83083
:1015F0000E480F4BC4F89050C4F89C50C4F8A85043
:10160000C4F8983023F0C6FC304622F077FD02483B
:1016100070BD00BF5C1A0020601A002074800208B0
:10162000047302087C73020828800208F51300087E
:101630000880020838B5184C23685BB3174B184A6A
:101640001B6C11888B4216D1164B198805F07AFE57
:10165000236893F86A200025013283F86A2083F812
:101660007C50FFF7B9FA20680AF092FC2846BDE8E2
:101670003840FFF7F9B805F065FE24682368204676
:101680001B6A9847012384F87C300020BDE838406D
:10169000FFF714B938BD00BF702C0120006801406D
:1016A0005A1A0020581A002007B5064BADF806005C
:1016B0001B68054801220DF1060106F0E3FB03B0AB
:1016C0005DF804FB0C000020741B002007B50B4CD8
:1016D0000B4D0C4E0121204605F026F8012808D1BB
:1016E0000023306800951A4669468DF8043007F0EB
:1016F00076F9782007F08DF8ECE700BF0000024093
:101700006A756D70341B002030B595B01022002131
:101710000AA823F028FE1422002103A823F023FEA8
:1017200000241E4B01941A6C42F080521A641B6C08
:1017300003F080530193019B194B02941A6842F401
:1017400040421A601B6803F4404302930122029B4B
:101750004FF48033CDE9082302254FF4800308219C
:10176000CDE90E534FF4B473CDE9101308A8042348
:101770001393129505F03EFE05F002FE0F23CDE90E
:1017800003354FF4A0504FF48053CDE906030521F3
:1017900003A8059406F00AF815B030BD00380240E1
:1017A0000070004080B59AB004F03EFDFFF7ACFF3A
:1017B000142200210DA823F0D6FD0024C74B00946D
:1017C0001A6BC748C74D42F010021A631A6B02F039
:1017D00010020092009A01941A6B42F020021A63E0
:1017E0001A6B02F020020192019A02941A6B42F0E5
:1017F00080021A631A6B02F080020292029A03942A
:101800001A6B42F004021A631A6B02F0040203928C
:10181000039A04941A6B42F001021A631A6B02F0E5
:1018200001020492049A05941A6B42F002021A63B0
:101830001A6B02F002020592059A06941A6B42F0A6
:1018400040021A631A6B02F040020692069A07944D
:101850001A6B42F008021A631B6B03F0080322465E
:1018600007933C21079B04F065FF9F48012202215A
:1018700004F060FF22469C48042104F05BFF2246EE
:101880009A484FF4405104F055FF01263C23CDE91E
:101890000D3693480F9403230DA90227109304F0EB
:1018A0005FFE91480DA9CDE90D76CDE90F4404F016
:1018B00057FE04238C480DA9CDE90D36CDE90F471D
:1018C00004F04EFE0DA94FF440538848CDE90D3683
:1018D000CDE90F4704F044FE8548864B036004F0D1
:1018E00035FDDFF838C2844B2C62C5E900C32846B9
:1018F0004FF48043C5E90434C5E90244C5E9064410
:1019000005F026F91021284605F06AFB21462846F5
:1019100005F085FB794DDFF808E2AC624FF4827385
:10192000C5E900E34FF400781823C5E9068328468B
:101930000A23C5E90244C5E90444C5E90844EB6249
:1019400006F044FA8F232246394667488DF8243042
:101950008DF8344004F0EEFE32464FF47A7309A954
:10196000284606F08FFA4FF47A7332460DA92846BE
:1019700006F034FC324639465B48614D04F0DAFE2D
:101980009DF83430D32B04BF5E4B1E705E4B012696
:10199000C5E90036102240230024C5E904234FF492
:1019A000C073C5E906344FF40063C5E908344FF449
:1019B000005302274FF00409AB624FF0030A0723DC
:1019C0000DA92846CDE90F93CDE90D734FF0080816
:1019D000C5E90249CDE911A7139706F0DBF84FF6E8
:1019E000FF7209A92846CDE90A86089409960C9445
:1019F00006F0F0F8304604F043FC4FF6FF7209A9F8
:101A00002846CDE90978CDE90B6406F0E3F84FF6F6
:101A1000FF7209A92846CDE90B94CDE909A806F083
:101A2000D9F84FF40C730893089B0C934FF6FF7290
:101A300009A92846CDE909980B9606F0CBF840F2A3
:101A40006A51284606F0E4F834220DEB02002146E4
:101A500023F089FC2D4D2E4B2C61C5E90034092360
:101A6000C5E905361D23C5E9073A40F20D1140F2DC
:101A70004313C5E9091340F2171040F24713C5E9B3
:101A80000B032846C5E90244AC8685F8364005F0CC
:101A900061FBFF21F022CDE912144FF005094FF44C
:101AA00080614FF4A073CDE90E24CDE91419CDE97E
:101AB00016420DA922462846CDE91037154D189338
:101AC0000D94ADF864408DF8664005F00EFC124BA5
:101AD0002B601B6898472B6824E000BF0038024049
:101AE00000100240741C002000080240000C02405C
:101AF000081D002000300240A0860100741B002059
:101B0000401B0020201B0020400100A0CC1B002017
:101B1000006801401C1B002058000020005C0040B1
:101B200000500140184DDB689847184B2846C5E91E
:101B30000034C5E90274C5E90A47C5E90C4404F05C
:101B400015FC3146284604F0C7FCFEF7C1FDFEF740
:101B5000BEFD06F0E7FD0E4A4946404606F004FF8A
:101B60000C4B0D4A186021460C4806F00EFE0C4B3B
:101B70000C4A186021460C4806F007FE0B4B186013
:101B800006F0E2FDFEE700BFC81C002000B00240E6
:101B9000C0730208341B0020FC730208CD16000835
:101BA0003C1B0020D8730208DF060008381B002009
:101BB000704770477FB5094B8DF817201B6802935B
:101BC0000DF117020123009201930A4601460448D1
:101BD00005F066F807B05DF804FB00BF10000020B8
:101BE000741C00207FB500238DF81730084B1B684C
:101BF00002930A4601230DF117010091019301465A
:101C0000044805F0DDF89DF8170007B05DF804FB07
:101C100010000020741C00201FB5084C246800929E
:101C2000CDE901340A4601230146054805F0C8F80C
:101C3000003818BF012004B010BD00BF1000002004
:101C4000741C002004F01CBB10B5064C002220467A
:101C5000042104F06FFD20460122BDE8104004215C
:101C600004F068BD0008024038B50B4D044601225F
:101C70000A484FF4005104F05DFD0022042128467B
:101C800004F058FD2046FFF70FFD28460122BDE86D
:101C90003840042104F04EBD00080240000C024010
:101CA00038B50B4D044600220A484FF4005104F0A9
:101CB00041FD00220421284604F03CFD2046FFF7A8
:101CC000F3FC28460122BDE83840042104F032BD6F
:101CD00000080240000C0240F7B5144E144F0546B0
:101CE0000C4630460022042104F024FD00224FF46B
:101CF0000051384604F01EFD2846FFF7D5FC0D4B79
:101D00000D481B68224601A906F068FA38460122F0
:101D10004FF40051019C04F00DFD304601220421D6
:101D200004F008FD204603B0F0BD00BF00080240EB
:101D3000000C02400C000020741B002004F0A0BA2C
:101D40000268034B9A4201D104F088BA704700BF81
:101D5000001000407047000082B00E4B002200923D
:101D6000596C41F480415964596C01F480410091EF
:101D700000990192196C41F0805119641B6C03F0B9
:101D800080530193019B0F216FF0010002B004F01A
:101D90009DBA00BF003802400268094B9A4282B0E7
:101DA0000BD100230193074B1A6B42F480521A6344
:101DB0001B6B03F480530193019B02B0704700BF7B
:101DC000003002400038024007B50F4B02689A42CB
:101DD00016D10022A3F5F0430192196B41F40001E2
:101DE00019631B6B03F40003019305215A20019B27
:101DF00004F06CFA5A2003B05DF804EB04F098BAD2
:101E000003B05DF804FB00BF00B002402DE9F043D1
:101E1000044689B01422002103A823F0A4FA226802
:101E2000244B9A4243D1244C244800250095236B2F
:101E300043F004032363236B03F004030093009B2C
:101E40000195236B43F001032363236B03F001032C
:101E50000193019B4FF012094FF400734FF00108FA
:101E60000327042603A9CDE90339CDE905870796A1
:101E700004F076FB4FF480731148079603A9CDE96F
:101E80000339CDE9058704F06BFB0295236C43F41D
:101E900000032364236C03F400030293029B236A70
:101EA00043F400032362236A23F40003236209B08E
:101EB000BDE8F083005C00400038024000080240AA
:101EC00000000240F0B599B004461422002107A892
:101ED00023F049FA30220DEB0200002123F043FAEF
:101EE00022685E4B9A4240F0B78008230C93C023CF
:101EF0001093042312930CA84FF40033159305F0AC
:101F00001DFD08B1FFF726FF554B564800240094ED
:101F10005A6C42F080625A645A6C02F080620092FD
:101F2000009A01941A6B42F020021A631A6B02F0B5
:101F300020020192019A02941A6B42F001021A6384
:101F40001A6B02F001020292029A03941A6B42F099
:101F500002021A631A6B02F002020392039A0494BB
:101F60001A6B42F040021A631A6B02F040020492AC
:101F7000049A05941A6B42F004021A631A6B02F079
:101F800004020592059A06941A6B42F008021A633D
:101F90001B6B03F00803069302250E26069B0B9687
:101FA0004FF4806307A9CDE90735CDE9094504F071
:101FB000D7FA41F658032C480B9607A9CDE9073507
:101FC0000927CDE9094504F0CBFA032327480B97ED
:101FD00007A9CDE90735CDE9094504F0C1FA4FF469
:101FE000706322480B9607A9CDE90735CDE909456D
:101FF00004F0B6FA4FF40C631D480B9607A9CDE91F
:102000000735CDE9094504F0ABFAC02319480B9612
:1020100007A9CDE90735CDE9094504F0A1FA082360
:1020200015480B9607A9CDE90735CDE9094504F018
:1020300097FA4FF4A0530E480B9707A9CDE907353F
:10204000CDE9094504F08CFA58202246052104F018
:102050003DF9582004F06CF919B0F0BD006801405A
:102060000038024000140240000002400004024018
:102070000018024000080240000C024010B504465F
:1020800088B01422002103A823F06DF92268144BB4
:102090009A4223D103F56843002101915A6C1148FB
:1020A00042F480125A645A6C02F480120192019A2E
:1020B00002911A6B42F020021A631B6B03F020039B
:1020C0000293029B4FF4607202230321CDE90323A4
:1020D0000523CDE9061303A904F042FA08B010BDA8
:1020E00000500140001402402DE9F04186B0002369
:1020F00003932B4B1C68002C4FD14FF00108C3F801
:102100000080284B00949A6B274842EA08029A63A1
:102110009B6B03EA08030093022703260C25009B10
:1021200001A94FF63F03CDE90137CDE9046504F07D
:1021300017FA1E48059501A9CDE90187CDE90346A7
:1021400004F00EFA48F233131948059501A9CDE9B8
:102150000137CDE9034604F003FA4FF683731548BF
:10216000059501A9CDE90137CDE9034604F0F8F959
:102170004CF203731048059501A9CDE90137CDE96B
:10218000034604F0EDF960230C48059501A9CDE95B
:102190000137CDE9034604F0E3F906B0BDE8F0816C
:1021A000101D0020003802400014024000080240C8
:1021B0000018024000100240000C024000040240DF
:1021C00070B588B000230293204B1A6C42F01002C5
:1021D0001A641B6C03F010030293054601A903A8BF
:1021E000029B05F08DFB069B4BBB05F079FB184E5F
:1021F000184B336040F2E733F360174BB0FBF3F357
:10220000013B7360304600233361B360B36106F075
:10221000B5F9044680B9304606F086F8044658B948
:10222000362004F085F80F2D0DD822462946362099
:1022300004F04CF8094B1D60204608B070BD05F055
:102240004FFB4000D3E70124F6E700BF003802400F
:10225000141D00200010004040420F00C00000206C
:102260007047FEE7FEE7FEE7FEE77047014806F02D
:1022700099B800BF141D0020014804F0D9BF00BF69
:10228000CC1B0020014804F09DB800BFC81C0020F2
:102290000120704708B523F009F9162303604FF0B9
:1022A000FF3008BD08B523F001F916230360FEE7EF
:1022B00070B50D4614460E46731B9C4201DC204649
:1022C00070BDAFF3008006F8010BF5E770B50D4661
:1022D00014460E46731B9C4201DC204670BD16F866
:1022E000010BAFF30080F5E74FF0FF3070474FF47C
:1022F00000534B600020704701207047002070475A
:102300000A4A116808B5034609B9094911601068FD
:10231000694603448B4206D923F0C8F80C230360B6
:102320004FF0FF3008BD1360FCE700BF5C1D0020CC
:10233000B0390120704708B5092922D8DFE801F03B
:102340001905090D191D1115191D02F0DFFD406851
:1023500008BD02F0DBFD8068FAE702F0D7FDC06837
:10236000F6E702F0D3FD4069F2E702F0CFFD8069A5
:10237000EEE702F0CBFD0068EAE702F0C7FD006976
:10238000E6E70020E4E710B50421044621F0A8FEAA
:10239000204610BD0048704734740208142070476E
:1023A00013B5002451B1036801948DF8034001AACC
:1023B0009C680DF10303A04702B010BD0846FBE77F
:1023C000C0897047008A7047C0887047808870470E
:1023D000807A00F07F007047807AC0097047002043
:1023E000704700009FED010A704700BF0000000029
:1023F000704710B50821044621F072FE204610BD3A
:102400007047704700F598730868496803C37047C0
:10241000704770474160704770477047064BC0F87F
:102420004C310023C0F8503100F5A273C0F84801C8
:10243000C0F84031704700BFB52500080123037282
:1024400070477047704710B4C26841685410034623
:1024500001EB6200D20748BF0A599B685DF8044B44
:1024600048BFD35818470346406830B19A681AB934
:10247000D86800F0010070470120704710B50C21AA
:10248000044621F02DFE204610BD10B51021044653
:1024900021F026FE204610BD10B54FF4AE71044663
:1024A00021F01EFE204610BD10B54021044621F04B
:1024B00017FE204610BD10B50EF0D2FE0368BDE831
:1024C0001040DB6B18470000054B1B7801462BB111
:1024D000406818B103680C315B6E1847704700BF45
:1024E0006F2C0120037A70B50546BBB940680368BC
:1024F000DB69984704463CB96868036805F10C013C
:102500001B6EBDE870401847A1886B8FC91A2368FD
:1025100020461B6B09B29847A469ECE770BD10B563
:102520000446D0F8400158B10368DB68984738B1D9
:10253000D4F8400103689B6898470023C4F84031F1
:1025400010BD70B5044690F8390094F83830013069
:10255000C0B2984284F8390005D9012323720023C0
:1025600084F8393070BDB4F93A20002111F004F933
:10257000C30706D500284FF6FF73C8BF01231844D0
:1025800000B2238AC01AA08760680368DB69984795
:1025900005462DB960680368BDE870405B6918475F
:1025A000A988A38F19442B6828461B6B09B298474A
:1025B000AD69EEE72DE9F14FD0E9556A0746B068FD
:1025C00003681B6A9847B0F5B27F05D2444B454A71
:1025D000A321454822F0C0FC706803681B6A984735
:1025E0000F2803D8414B3F4AA421F2E7F068036863
:1025F0001B6A98470B2803D83D4B3A4AA521E8E7C8
:102600000EF02EFEDFF8F09004300EF067FED9F8E1
:10261000000010B10368DB689847D9F8000010B1DA
:1026200003681B689847DFF8D480D8F8000010B121
:1026300003685B699847D7F83C0110B103685B6891
:102640009847D8F8000010B103681B689847D7F87E
:102650003C0110B103689B689847F068036800214B
:102660005B6A98474FF0000B224BC0F804B0044659
:1026700080F808B00360B068036859465B6A984701
:10268000054603F017FB7068036859465B6A984774
:102690002946064603F0ECFA331DC7F83C61CAF838
:1026A00008302B68C6F808A02846DB68C9F8004047
:1026B000C8F80050EE639847336830461B68984767
:1026C0002146284611F052F8236820461B69984796
:1026D00023685B69204601B0BDE8F04F184700BF92
:1026E000F2640208806502085A660208A1660208C0
:1026F0004467020848760208B82C0120B42C012057
:10270000044B1B6893F858200AB1D86C00B998683C
:10271000704700BF702C0120F8B5174604460E46DE
:102720000EF0AAFE124B1C60124B2360124B0025C8
:10273000C4E95135114BC4E95355186803680121A8
:102740009B68C4E94F55C4E955769847284602F07E
:1027500091FBFFF7D5FF19F0C0FBFFF7D1FF19F090
:1027600037FCFFF7CDFF19F03FFC2046F8BD00BF56
:10277000C42C0120F4750208DC750208702C0120BD
:10278000064BC0F84C310023C0F8503100F5A2735D
:10279000C0F84801C0F84031704700BFB5250008B7
:1027A000064BC0F84C310023C0F8503100F5A2733D
:1027B000C0F84801C0F84031704700BFF52E00084E
:1027C000064BC0F84C310023C0F8503100F5A2731D
:1027D000C0F84801C0F84031704700BFBD2D000867
:1027E000064BC0F84C310023C0F8503100F5A273FD
:1027F000C0F84801C0F84031704700BF852C000880
:10280000064BC0F84C310023C0F8503100F5A273DC
:10281000C0F84801C0F84031704700BF4D2B000898
:10282000064BC0F84C310023C0F8503100F5A273BC
:10283000C0F84801C0F84031704700BF152A0008B1
:10284000064BC0F84C310023C0F8503100F5A2739C
:10285000C0F84801C0F84031704700BFDD280008CB
:1028600003685B6A184700002DE9F0410546002621
:10287000164B4660067245F80C3B044628460F4648
:102880000BF03AFA124B84F838701B7884F83960F0
:10289000A68723B9012323722046BDE8F0810D4BA2
:1028A0000D4FB3F90080E368B7F900109B6B266108
:1028B00028469847E3684146DB6B284698472846F8
:1028C0000BF095F93B885B426387E5E76C7602087D
:1028D0006F2C0120662C0120642C01202DE9F0478B
:1028E000D0E9556A0746B06803681B6A9847B0F597
:1028F000B36F05D2404B414AA321414822F02CFB43
:10290000706803681B6A98470F2803D83D4B3B4A01
:10291000A421F2E7F06803681B6A98473F2803D8B0
:10292000394B364AA521E8E70EF09AFCDFF8DC9037
:1029300004300EF0D3FCD9F8000010B10368DB6856
:102940009847D9F8000010B103681B689847DFF872
:10295000C080D8F8000010B103685B699847D7F8C9
:102960003C0110B103685B689847D8F8000010B1CB
:1029700003681B689847D7F83C0110B103689B684F
:102980009847F0680021FFF76BFF14210446FFF71A
:102990006BFFB068036800215B6A9847054602F048
:1029A00011FF7068036800215B6A98472946064654
:1029B00002F0E2FE331DC7F83C61CAF808302B680C
:1029C000C6F808A02846DB68C9F80040C8F80050DF
:1029D000EE639847336830461B689847214628467F
:1029E00010F0C4FE236820461B69984723682046E0
:1029F0005B69BDE8F0471847F2640208E767020820
:102A00005A660208A166020844670208B82C012031
:102A1000B42C01202DE9F047D0E9556A0746B0688B
:102A200003681B6A9847B0F5257F05D2404B414AA1
:102A3000A321414822F090FA706803681B6A984706
:102A40000F2803D83D4B3B4AA421F2E7F068036806
:102A50001B6A98473F2803D8394B364AA521E8E737
:102A60000EF0FEFBDFF8DC9004300EF037FCD9F8F6
:102A7000000010B10368DB689847D9F8000010B176
:102A800003681B689847DFF8C080D8F8000010B1D1
:102A900003685B699847D7F83C0110B103685B682D
:102AA0009847D8F8000010B103681B689847D7F81A
:102AB0003C0110B103689B689847F0680021FFF75C
:102AC000CFFE14210446FFF7CFFEB0680368002153
:102AD0005B6A9847054602F051FC70680368002164
:102AE0005B6A98472946064602F014FC331DC7F876
:102AF0003C61CAF808302B68C6F808A02846DB6895
:102B0000C9F80040C8F80050EE6398473368304673
:102B10001B6898472146284610F028FE2368204667
:102B20001B699847236820465B69BDE8F047184752
:102B3000F2640208DC6802085A660208A16602080C
:102B400044670208B82C0120B42C01202DE9F0477D
:102B5000D0E9556A0746B06803681B6A9847B0F524
:102B6000137F05D2404B414AA321414822F0F4F99A
:102B7000706803681B6A98470F2803D83D4B3B4A8F
:102B8000A421F2E7F06803681B6A98473F2803D83E
:102B9000394B364AA521E8E70EF062FBDFF8DC90FE
:102BA00004300EF09BFBD9F8000010B10368DB681D
:102BB0009847D9F8000010B103681B689847DFF800
:102BC000C080D8F8000010B103685B699847D7F857
:102BD0003C0110B103685B689847D8F8000010B159
:102BE00003681B689847D7F83C0110B103689B68DD
:102BF0009847F0680021FFF733FE14210446FFF7E1
:102C000033FEB068036800215B6A9847054602F00E
:102C100055FE7068036800215B6A9847294606469E
:102C200002F018FE331DC7F83C61CAF808302B6863
:102C3000C6F808A02846DB68C9F80040C8F800506C
:102C4000EE639847336830461B689847214628460C
:102C500010F08CFD236820461B69984723682046A6
:102C60005B69BDE8F0471847F2640208C7690208CB
:102C70005A660208A166020844670208B82C0120BF
:102C8000B42C01202DE9F047D0E9556A0746B06819
:102C900003681B6A9847B0F5137F05D2404B414A41
:102CA000A321414822F058F9706803681B6A9847CD
:102CB0000F2803D83D4B3B4AA421F2E7F068036894
:102CC0001B6A98473F2803D8394B364AA521E8E7C5
:102CD0000EF0C6FADFF8DC9004300EF0FFFAD9F8F7
:102CE000000010B10368DB689847D9F8000010B104
:102CF00003681B689847DFF8C080D8F8000010B15F
:102D000003685B699847D7F83C0110B103685B68BA
:102D10009847D8F8000010B103681B689847D7F8A7
:102D20003C0110B103689B689847F0680021FFF7E9
:102D300097FD14210446FFF797FDB0680368002152
:102D40005B6A9847054602F077F9706803680021CE
:102D50005B6A98472946064602F03AF9331DC7F8E0
:102D60003C61CAF808302B68C6F808A02846DB6822
:102D7000C9F80040C8F80050EE6398473368304601
:102D80001B6898472146284610F0F0FC236820462F
:102D90001B699847236820465B69BDE8F0471847E0
:102DA000F2640208B66A02085A660208A1660208BE
:102DB00044670208B82C0120B42C01202DE9F0470B
:102DC000D0E9556A0746B06803681B6A9847B0F5B2
:102DD0000F7F05D2404B414AA321414822F0BCF865
:102DE000706803681B6A98470F2803D83D4B3B4A1D
:102DF000A421F2E7F06803681B6A98473F2803D8CC
:102E0000394B364AA521E8E70EF02AFADFF8DC90C4
:102E100004300EF063FAD9F8000010B10368DB68E3
:102E20009847D9F8000010B103681B689847DFF88D
:102E3000C080D8F8000010B103685B699847D7F8E4
:102E40003C0110B103685B689847D8F8000010B1E6
:102E500003681B689847D7F83C0110B103689B686A
:102E60009847F0680021FFF7FBFC14210446FFF7A8
:102E7000FBFCB068036800215B6A9847054602F0D6
:102E8000DDFE7068036800215B6A984729460646A4
:102E900002F0B2FE331DC7F83C61CAF808302B6857
:102EA000C6F808A02846DB68C9F80040C8F80050FA
:102EB000EE639847336830461B689847214628469A
:102EC00010F054FC236820461B699847236820466D
:102ED0005B69BDE8F0471847F2640208A16B02087D
:102EE0005A660208A166020844670208B82C01204D
:102EF000B42C01202DE9F047D0E9556A0746B068A7
:102F000003681B6A9847B0F5B27F05D2404B414A2F
:102F1000A321414822F020F8706803681B6A984793
:102F20000F2803D83D4B3B4AA421F2E7F068036821
:102F30001B6A98473F2803D8394B364AA521E8E752
:102F40000EF08EF9DFF8DC9004300EF0C7F9D9F8F6
:102F5000000010B10368DB689847D9F8000010B191
:102F600003681B689847DFF8C080D8F8000010B1EC
:102F700003685B699847D7F83C0110B103685B6848
:102F80009847D8F8000010B103681B689847D7F835
:102F90003C0110B103689B689847F0680021FFF777
:102FA0005FFC14210446FFF75FFCB0680368002152
:102FB0005B6A9847054602F07DFE70680368002151
:102FC0005B6A98472946064602F052FE331DC7F851
:102FD0003C61CAF808302B68C6F808A02846DB68B0
:102FE000C9F80040C8F80050EE639847336830468F
:102FF0001B6898472146284610F0B8FB23682046F6
:103000001B699847236820465B69BDE8F04718476D
:10301000F26402088C6C02085A660208A166020873
:1030200044670208B82C0120B42C0120406A704784
:10303000806A704770478A880B8810B5D20A4C881E
:10304000C1699BB251F8220043EA0443184410BD01
:1030500010B50446BAB1107B68B1537BD27A1B021B
:1030600003F4E0631A43236A03EB82031A888A425B
:1030700002D193F9020010BD05D8013880B20433A3
:103080000028F3D1F7E70020F5E710B52C2104461E
:1030900021F026F8204610BD30B58BB00446BDF8AF
:1030A00060500895BDF85C5007959DF85050069506
:1030B0009DF84C5005959DF8485004959DF8445056
:1030C00003959DF8405002959DF83C500195BDF840
:1030D000385000950FF018FF064B2360159BE361F5
:1030E000169B2362199B63621A9BA36220460BB056
:1030F00030BD00BF90760208806A70477047704705
:1031000070477047704730B5036885B06D460181E0
:10311000D3F88430014604462846984795E80700CE
:103120003C3484E8070005B030BD30B5036885B095
:103130006D464181D3F884300146044628469847BD
:1031400095E807003C3484E8070005B030BD002254
:10315000028042808280C280704780F836107047BB
:1031600070B5036804461B6B1546984723682946CB
:1031700020465B6EBDE87040184700207047806CA9
:10318000704770477047704770477047704730B45A
:10319000C26844685510034604EB6200D20748BF7A
:1031A00062599B6830BC48BFD358184703464068F3
:1031B00030B19A681AB9D86800F001007047012050
:1031C000704730B4C26844685510034604EB62008F
:1031D000D20748BF62599B6830BC48BFD3581847D4
:1031E0000346406830B19A681AB9D86800F0010007
:1031F00070470120704790F82D3080F8603070479C
:103200000146383091F82C3013B136310BF03ABB0F
:103210003431FBE710B56421044620F061FF2046FD
:1032200010BD10B54C21044620F05AFF204610BDB9
:1032300010B51021044620F053FF204610BD10B5F4
:103240001021044620F04CFF204610BD10B54FF46D
:103250000C71044620F044FF204610BD08B5FEF76F
:103260002DF908BD10B50446006B50B10368DB684A
:10327000984730B1206B036821469B68BDE8104039
:10328000184710BD0B7970B590F82C6004460D46B8
:103290000BB916B170BD002EFCD0B3FA83F35B09F5
:1032A00084F82C3023682046D3F88C309847236864
:1032B00020465B699847002EECD02B79012BE9D191
:1032C00023682046D3F88830BDE8704018470000D6
:1032D000036870B55E6B124B1B6804468DB22BB948
:1032E000104B114A6C21114821F036FE1049828D95
:1032F0000988914203D80F4B0B4A6D21F3E713F86D
:1033000012200D4B1B6853F8220003681B6B984773
:10331000291A3346204609B2BDE87040184700BF5D
:10332000C82C0120796D0208BB6D0208F66D0208F9
:10333000CC2C01203D6E0208D02C012000F58070BD
:10334000884208B505D10DF08BFFBDE80840FFF7B6
:1033500037BA08BD00F5EE70884208B505D10DF00A
:103360007FFFBDE80840FFF76BBA08BD00224FF0B1
:10337000FF31C0E900218260704770B503680446E0
:103380001B6B154698472368294620465B6BBDE8B2
:10339000704018470B882DE9F04183861388B0F9F7
:1033A0000850C38604461046904611F0FBFDB4F960
:1033B0000A30074603EBD3734046C3F34F0611F0C0
:1033C00025FE05EBD575C5F34F0500EBD07007EB77
:1033D000D777A6EB6002A5EB670104F1380012B2C3
:1033E00009B2FFF7CAFF23682046D3F88C30BDE846
:1033F000F041184770B504461D46BDF91060FFF74F
:10340000BCFF2368294620469B6B984723683146BA
:103410002046DB6BBDE87040184700000022C0E981
:103420000122C0E90322C0E90522C0E907224FF4C6
:1034300080728284014A0260704700BFF8760208F9
:1034400010B526220446002121F08DFF2046FFF70B
:10345000E5FF044B2360FF2384F826300023A3629A
:10346000204610BD3882020838B5262204460D4693
:10347000002121F078FF2046FFF7D0FF064B2360A4
:103480002B88E384FF23204684F8283029460BF05C
:10349000F9F9204638BD00BF7C8302082DE9F04FC2
:1034A00004468FB0A14600250FF0B4FFAA4BE56398
:1034B00049F8403B04F16C0B4846FFF7C1FF4FF65B
:1034C000FF760CA95846ADF83060FFF7CDFF04F148
:1034D00098031846A14F0593FFF7B2FF04F1CC0300
:1034E000C4F89870C4F8C450A4F8C850184604939F
:1034F000FFF7A6FF04F5807302934FF47F43A4F80F
:103500002C3140F201134FF0FF3AC4F8CC70A4F80C
:10351000243104F59C77924BC4F80031C4E941553D
:10352000C4E94355C4E94555C4E94755C4F8F850C2
:10353000A4F8FC50C4F82851C4F83051C4F834A1A0
:103540000CA93846ADF830A0FFF78EFF0298394637
:1035500007F0B6FC04F5B27304F5C87718460CA959
:103560000393ADF83060FFF77FFF294626223846E7
:1035700021F0F9FE3846FFF751FF7A4BC4F8B83115
:103580004FF47F0304F5EE78C4F8C431764BC4F8E9
:103590009031C4E9735A2946C4E97555A4F8BC6151
:1035A000C4F8C051A4F8C8512622404621F0DBFEE1
:1035B0004046FFF733FF012384F800326B4BC4F819
:1035C000DC316B4BC4F80452C4E98434694B84F891
:1035D0000852C4E98635684BA4F80A62C4E9883405
:1035E000664BA4F80C62C4E98A354FF4A0734FF01F
:1035F0007F4A84F80E622A46261D00932946F0234E
:103600004846FFF7F7FE49463046C4F868A007F081
:1036100057FC2A4629465846FFF7AFFE09230CA956
:103620005846ADF830300BF02DF9594630464FF47E
:10363000967B07F045FCDFF848910598CDF800B07F
:103640006FF0C0023223A021FFF7D4FE05230599B5
:10365000A4F8C8303046C4E9309A07F031FC049829
:10366000CDF800B03223C122A021FFF7C3FE049998
:10367000A4F8FC503046C4E93D9A07F021FC0F2322
:103680000298ADF82C300CAA0BA9ADF83030FFF73A
:1036900081FE04F50473C4F830311E23C4F83C5194
:1036A0002A4600930298D221FFF7A4FE02993046E1
:1036B00007F006FC8E2203982721FFF75EFE0A23FF
:1036C0000398ADF830300CA90BF0DCF803993046C4
:1036D00007F0F6FB2A4638460E21FFF74EFED4F8D7
:1036E0009031A4F8C45106AD39462846D3F8843049
:1036F000C4F8C0A1984795E8070004F5E67383E88D
:103700000700184B0C930CA908233846ADF8343049
:103710000AF08CFE3946304607F0D2FB40466FF087
:103720003902F021FFF729FE0223ADF82C300CAA54
:1037300003230BA94046ADF830300AF0D5FE04F55E
:1037400008733046C4F80432414607F0B9FB2046FE
:103750000FB0BDE8F08F00BFC078020814830208E4
:10376000F0770208CC75020860770208A082020890
:10377000907802083D330008A87802085533000805
:10378000380400FF704770477047704730B4C26814
:1037900044685510034604EB6200D20748BF6259E3
:1037A0009B6830BC48BFD35818470346406830B1C7
:1037B0009A681AB9D86800F0010070470120704774
:1037C00030B4C26844685510034604EB6200D20767
:1037D00048BF62599B6830BC48BFD358184703465E
:1037E000406830B19A681AB9D86800F00100704793
:1037F0000120704710B51021044620F071FC2046CE
:1038000010BD10B51021044620F06AFC204610BD02
:1038100010B54FF41E71044620F062FC204610BD26
:1038200000F5FA70884208B505D10DF019FDBDE824
:103830000840FEF7C5BF08BD6C30884208B505D109
:103840000DF00EFDBDE80840FEF7FABF08BD000010
:103850002DE9F04F044693B0A14600250FF0DAFDA4
:10386000BB4BE56349F8403B04F16C084FF0260A76
:103870004846FFF7E5FD52462946404621F073FDD4
:103880004046FFF7CBFD01234FF6FF7604F1A00B76
:1038900084F89030AF4BE366A4F89A60A4F89C607B
:1038A00084F89E6010A9C4F8945084F89850584643
:1038B000ADF84060FFF7D8FD04F1CC0304F1F80740
:1038C000184610A90393ADF84060FFF7CDFD2946D7
:1038D0005246384621F047FD3846FFF79FFD9E4B84
:1038E000C4F820314FF47F034FF0FF3A04F5A27281
:1038F000C4F82C31994BC4F8F830A4F82461C4E919
:103900004EA5C4F82851A4F83051C4F83451C4F875
:10391000405110460692FFF793FD04F5B872104629
:103920000792FFF78DFD04F5CE7210460892FFF75F
:1039300087FD04F5E47210A910460492ADF840A08A
:10394000FFF792FD4FF47F43A4F8203240F20113B9
:10395000A4F81832824BC4F8F43104F50B7304F563
:10396000FA7210A9C4E97E55C4E98055C4E98255AC
:10397000C4E98455C4E9895AC4F81C521846059212
:10398000ADF840600993FFF76FFD099B0598194654
:1039900007F096FA734BC4E99634734BC4E9983533
:1039A000724BC4E99A34724B4FF4A072C4E99C354F
:1039B0002946009248462A46F023261DFFF71AFDA5
:1039C0004FF07F43A3664946304607F079FA4046F8
:1039D0006FF03902F021FFF7D0FC022310AAADF8F6
:1039E0003C300FA903234046ADF840300AF07CFD7F
:1039F00004F51A73C4F894304146304607F060FA73
:103A00002A4629465846FFF7B8FC0E2310A9584607
:103A1000ADF840300AF036FF5946304607F050FA0C
:103A20008F2203981E21FFF7A8FC0A230398ADF804
:103A3000403010A90AF026FF0399304607F040FAFB
:103A40002A4638461221FFF798FCD4F8F830C4F81B
:103A500028A10DF1280839464046D3F88430A4F84F
:103A60002C51984798E8070004F59A7383E80700FB
:103A70004FF00808384B109310A9384640F223192C
:103A8000ADF844800AF0D2FC3946304607F018FA07
:103A9000384F0698CDF8009032236FF0B502992187
:103AA000FFF7A8FC0699C4F86C71304607F008FAD5
:103AB0000798CDF800903223B3229921FFF79AFCA2
:103AC0000799C4F89871304607F0FAF94FF4A073DB
:103AD0002A4608980093B4213C23FFF78BFC264B21
:103AE000C4F8C4310899304607F0EAF97E220498F8
:103AF0004146FFF742FC0498102310A9ADF840306E
:103B00000AF0C0FEC123049984F8F031304607F072
:103B1000D7F90F230598ADF83C3010AA0FA9ADF8DE
:103B20004030FFF737FC04F51673C4F824321E2327
:103B30000598C4F830522A460093D221FFF75AFC68
:103B40003046059907F0BCF9204613B0BDE8F08F68
:103B500024790208A0820208CC7502086077020866
:103B6000F0770208F4780208213800080C7902087E
:103B700039380008827949FF33130FFF70477047C7
:103B8000704730B4C26844685510034604EB6200C5
:103B9000D20748BF62599B6830BC48BFD35818470A
:103BA0000346406830B19A681AB9D86800F001003D
:103BB00070470120704710B51021044620F090FA9C
:103BC000204610BD10B54FF4AB61044620F088FAD2
:103BD000204610BD00F5E270884208B505D10DF011
:103BE0003FFBBDE80840FEF7DBBD08BD10B526224F
:103BF0000446002121F0B7FB2046FFF70FFC0A4BDB
:103C000023600A4BA3624FF6FF73A3854FF47F0234
:103C10000023C4E90C3223874FF0FF32C4E910239C
:103C2000E363204610BD00BFA8810208CC750208DE
:103C3000F8B5194B018F1B888B4206462AD9174BC2
:103C40001B682BB9164B174A17486C2121F084F9D1
:103C500013F81120154B1B6853F82250144B1868A9
:103C600001F044F92B6807469B6B284698472B6860
:103C700004469B6C3946284698472B6814FB00F491
:103C80005B6A394628469847A4B223181BB2A6F8A7
:103C90004630F8BD0023FAE7CC2C0120C82C0120C7
:103CA000796D0208BB6D0208F66D0208D02C012068
:103CB000D42C01202DE9F04F044691B0A0460025F8
:103CC0000FF0A8FBE14BE56348F8403B26273A4656
:103CD0002946404621F047FB4046FFF79FFB04F191
:103CE0006C09FF26DA4B23643A464FF6FF732946E8
:103CF00084F86660A5664846ADF8383021F033FB9D
:103D00004846FFF78BFBD34BE366BDF83830A4F889
:103D100092300EA904F1980A84F8946048460AF09B
:103D2000B1FD04F1E00B5046FFF760FF5846FFF786
:103D30005DFFC94EC4F8E06004F59673C4F82851DD
:103D400018460693FFF752FF04F5BC73C4F82C61C4
:103D5000C4F8745118460793FFF748FF04F5E2735F
:103D600004F50377C4F878611846C4F8C051059388
:103D70000AF0CAFE384606F07FFE04F5487318467E
:103D8000039306F079FE04F234431846049306F0D8
:103D900073FEB24BC4F84835B14BC4F850352A46CF
:103DA00029464046C4F84C45C4F85455FFF7E5FA97
:103DB0004046F021FDF7CCFA40464FF4A071261D95
:103DC000FDF7C8FA4FF07F43A3664146304607F03F
:103DD00077F82A4629464846FFF7CFFA09230EA965
:103DE0004846ADF838300AF04DFD4946304607F0F8
:103DF00067F8142250461E21FFF7BFFA0DF1200983
:103E00004FF07F43C4F8C83051464846A4F8CC5020
:103E10000AF072F899E8070004F1D403DFF844824D
:103E2000CDF8388083E8070007230EA95046ADF887
:103E30003C300AF0FBFA5146304607F041F858464C
:103E40003F222D21FFF799FAD4F8E020A4F814516D
:103E50004FF07F43C4F8103159464846D2F88420C9
:103E6000904799E8070004F58E7C8CE80700032250
:103E70000EA95846ADF83C20CDF838800AF0D6FAA5
:103E80005946304607F01CF8069878222D21FFF796
:103E900074FAD4F82C210699D2F88420A4F8605141
:103EA0004FF07F43C4F85C314846904799E80700DB
:103EB00004F5B47C8CE807004FF0060A0698ADF8CC
:103EC0003CA00EA9CDF838800AF0B0FA0699304629
:103ED00006F0F6FF0798B0222D21FFF74EFAD4F82E
:103EE00078210799D2F88420A4F8AC514FF07F4391
:103EF000C4F8A8314846904799E8070004F5DA7CF1
:103F00008CE8070005220798ADF83C200EA9CDF8F3
:103F100038800AF08BFA0799304606F0D1FF0598F1
:103F2000FA222321FFF729FA0EAA0DA90598ADF868
:103F300034A00723ADF838300AF0D6FA04230598E8
:103F4000A4F8FC31FFF774FE4FF0FF33C4E980336F
:103F500004F5A963C4F8EC310599DFF80CA13046EB
:103F600006F0AEFF4FF01E0B384681222321FFF7EB
:103F700004FA3846CDF800B096230A220C2106F048
:103F80005DFD64222B4629463846009506F0D6FD95
:103F90005146384606F0D5FC02230EA93846ADF846
:103FA0003C304FF00809CDF8388006F0EFFC0EA940
:103FB0003846ADF8389006F015FF2946384606F029
:103FC000F1FC3946304606F07BFF0398BA222321E4
:103FD000FFF7D3F90398CDF800B096230A220C21FD
:103FE00006F02CFD2B46642203980095294606F026
:103FF000A5FD0398514606F0A4FC0398CDF838803F
:104000000EA9ADF83C5006F0C1FC0398ADF838900D
:104010000EA906F0E7FE0398294606F0C3FC0399B3
:10402000304606F04DFF049847222321FFF7A5F9FB
:104030000498CDF800B096230A220C2106F0FEFC6D
:1040400064222B460498009529460FE070790208F7
:10405000388202087C8302086077020858790208D7
:10406000D53B0008CC750208371B0CFF06F066FD37
:104070000498514606F065FC01230498ADF83C30E5
:104080000EA9CDF8388006F081FC0498ADF8389080
:104090000EA906F0A7FE0498294606F083FC3046D8
:1040A000049906F00DFF204611B0BDE8F08F00BF67
:1040B000704770477047704730B4C2684468551005
:1040C000034604EB6200D20748BF62599B6830BCCC
:1040D00048BFD35818470346406830B19A681AB9A8
:1040E000D86800F0010070470120704730B4C26802
:1040F00044685510034604EB6200D20748BF62597A
:104100009B6830BC48BFD35818470346406830B15D
:104110009A681AB9D86800F001007047012070470A
:1041200010B5102104461FF0DBFF204610BD10B56E
:10413000102104461FF0D4FF204610BD10B54FF4E7
:104140000C7104461FF0CCFF204610BD00F59A709C
:10415000884208B505D10DF083F8BDE80840FEF7A8
:104160002FBB08BD6C30884208B505D10DF078F83A
:10417000BDE80840FEF764BB08BD00002DE9F04F24
:1041800004468FB0A14600250FF044F9A94BE56322
:1041900049F8403B04F16C084846FFF751F92622E4
:1041A0002946404621F0DFF84046FFF737F9012362
:1041B0004FF6FF7604F1A00B84F890309E4BC4F8C4
:1041C00094500CA984F89850E366A4F89A60A4F877
:1041D0009C6084F89E605846ADF83060FFF744F963
:1041E00004F1CC031846954F0593FFF729F904F520
:1041F0008073C4F8CC70C4F8F850A4F8FC5018468A
:104200000493FFF71DF904F59A7302934FF47F436B
:10421000A4F8603140F201134FF0FF3AC4F8007186
:10422000A4F8583104F5B677854BC4F83431C4E9A5
:104230004E55C4E95055C4E95255C4E95455C4F823
:104240002C51A4F83051C4F85C51C4F86451C4F83E
:1042500068A10CA93846ADF830A0FFF705F902981F
:10426000394606F02DFE04F5CC7304F5E2771846C6
:104270000CA90393ADF83060FFF7F6F82946262223
:10428000384621F070F83846FFF7C8F86D4BC4F88F
:10429000EC314FF47F03C4F8F8316B4BC4F8C431F0
:1042A0006A4BA4F8F061C4E98434694BC4F8F45152
:1042B000C4E98635674BA4F8FC51C4E98834664BE1
:1042C000C4E98A354FF4A073261DC4E9805AC4E9B5
:1042D00082554FF07F4A2A4600932946F0234846EC
:1042E000FFF788F849463046C4F868A006F0E8FDB4
:1042F00040466FF03902F021FFF73FF802230CAA85
:10430000ADF82C300BA903234046ADF830300AF04D
:10431000EBF804F50873C4F894304146304606F0D3
:10432000CFFD2A4629465846FFF727F809230CA94E
:104330005846ADF830304FF496790AF0A3FA594652
:10434000304606F0BDFDDFF814810598CDF80090E9
:104350006FF0C0023223A021FFF74CF80523059926
:10436000A4F8FC303046C4E93D8A06F0A9FD049863
:10437000CDF800903223C122A021FFF73BF8049929
:10438000A4F830513046C4E94A8A06F099FD0F235B
:104390000298ADF82C300CAA0BA9ADF83030FEF71E
:1043A000F9FF04F50473C4F864311E23C4F8705196
:1043B0002A4600930298D221FFF71CF80299304652
:1043C00006F07EFD8E2203982721FEF7D6FF0A23F2
:1043D0000398ADF830300CA90AF054FA039930462E
:1043E00006F06EFD2A4638460E21FEF7C6FFD4F8C9
:1043F000C431A4F8F85106AD39462846D3F88430C4
:10440000C4F8F4A1984795E8070004F5007383E821
:1044100007000C4B0C930CA908233846ADF8343038
:104420000AF004F83046394606F04AFD20460FB03F
:10443000BDE8F08FD4790208A08202081483020834
:10444000F0770208CC75020860770208A4790208A8
:104450004D410008BC79020865410008380400FF9E
:10446000704770477047704730B4C2684468551051
:10447000034604EB6200D20748BF62599B6830BC18
:1044800048BFD35818470346406830B19A681AB9F4
:10449000D86800F0010070470120704730B4C2684E
:1044A00044685510034604EB6200D20748BF6259C6
:1044B0009B6830BC48BFD35818470346406830B1AA
:1044C0009A681AB9D86800F0010070470120704757
:1044D00010B5102104461FF003FE204610BD10B594
:1044E000102104461FF0FCFD204610BD10B54FF40E
:1044F0000F7104461FF0F4FD204610BD38B500F1E1
:104500009803994204460D4603D10CF0A9FEFEF72C
:1045100067F904F594739D4203D10CF0A1FEFEF7F8
:104520006FF904F5B874A54205D10CF099FEBDE809
:104530003840FEF775B938BD00F5DC70884208B523
:1045400005D10CF08DFEBDE80840FEF729B908BD85
:104550002DE9F04F04468FB0A14600250EF05AFF1A
:104560009F4BE56349F8403B26222946484620F008
:10457000FAFE4846FEF752FF9A4B2364FF2384F865
:10458000663004F16C0304F1980A18460CA94FF642
:10459000FF76A56604F1E0080493ADF83060FEF7FD
:1045A00063FF50460AF0B0FA29462622404620F022
:1045B000DAFE4046FEF732FF8B4BC4F8E0308B4BFF
:1045C000C4F808314FF0FF3704F594724FF47F03BD
:1045D00004F5B87BC4F81431A4F80C611046C4E9A2
:1045E0004875C4F81051A4F81851C4F81C5103922E
:1045F0000AF08AFA58460AF087FA4FF47F43A4F883
:10460000E43140F2011304F5F876A4F8DC31784B7C
:10461000C4F8B83104F5DC720CA9C4E96F55C4E9DB
:104620007155C4E97355C4E97555C4E97A57C4F89E
:10463000E05130460592ADF83070FEF715FF059851
:10464000314606F03DFC6B4BC4E987346A4BC4E944
:1046500089356A4BC4E98B34694BC4E98D354FF415
:10466000A0732A46009329464846F023FEF7C2FE6F
:10467000261D4FF07F43A3664946304606F020FCD6
:1046800004982A462946FEF778FE0D220498ADF8D4
:1046900030200CA90AF0F6F80499304606F010FC18
:1046A000504651222121FEF768FE07220BA9ADF8E2
:1046B0002C20ADF8302050460CAA09F015FF0C2232
:1046C000A4F8D02004F507795046FFF7B1FA514617
:1046D0003046C4E93577C4F8C09006F0F1FB1622E5
:1046E00040462621FEF749FE0DF1180A4FF07F43A0
:1046F000C4F8103141465046A4F8145109F0FCFBAF
:104700009AE8070004F58E7C8CE80700374B0C9381
:104710000A220CA94046ADF8342009F087FE414634
:10472000304606F0CDFB0398A0222121FEF725FE9E
:1047300005220BA90398ADF82C20ADF830200CAA67
:1047400009F0D2FE0B220398A4F86021FFF770FA5B
:104750002C4A0399C4F85091C4E95927304606F011
:10476000AFFB5846EC222121FEF707FE04220BA9DD
:10477000ADF82C20ADF8302058460CAA09F0B4FE54
:104780000922A4F8A8215846FFF752FA4FF07F43B8
:10479000C4E96B3359463046C4F8989106F090FB53
:1047A0000F230598ADF82C300CAA0BA9ADF83030CA
:1047B000FEF7F0FD04F50B73C4F8E8311E230598ED
:1047C000C4F8F4512A460093D221FEF713FE304676
:1047D000059906F075FB20460FB0BDE8F08F00BFCD
:1047E000387A020838820208A8810208CC750208CB
:1047F000F0770208087A0208FD440008207A0208CF
:1048000039450008450003FF70477047704730B4D2
:10481000C26844685510034604EB6200D20748BFE3
:1048200062599B6830BC48BFD3581847034640685C
:1048300030B19A681AB9D86800F0010070470120B9
:10484000704710B5102104461FF04AFC204610BDE9
:1048500010B54FF4B27104461FF042FC204610BD63
:1048600000F58670884208B505D10CF0F9FCBDE86A
:104870000840FDF7A5BF08BD2DE9F04F044689B0FB
:10488000264600250EF0C6FD674BE56346F8403B23
:104890004FF026094A462946304620F064FD30464E
:1048A000FEF7BCFD614B236404F16C0BFF2304F1A4
:1048B000980784F86630A5664FF6FF7806A9584633
:1048C000ADF81880FEF7D0FD4A462946384620F05C
:1048D0004AFD3846FEF7A2FD554BC4F89830554BBB
:1048E000C4F8C0304FF47F0304F1E00AC4F8CC30C0
:1048F0004FF0FF33C4E9363504F5867906A9A4F8EC
:10490000C480C4F8C850A4F8D050C4F8D45050465D
:10491000ADF81830FEF7A8FD48460AF0F5F8464A0B
:10492000C4E95524454A2946C4E9572530462A4654
:10493000FEF723FD3046F021FCF70AFD30464FF428
:10494000A071FCF707FD04F104084FF07F42A26656
:104950003146404606F0B4FA2A4629465846FEF744
:104960000CFD0D2606A95846ADF8186009F08AFF1F
:104970005946404606F0A4FA38461A221021FEF79E
:10498000FCFC4FF07F42A4F8CC506D46C4F8C82020
:104990003946284609F0B0FA95E8070004F1D40C2E
:1049A0008CE80700234B06930E2206A93846ADF883
:1049B0001C2009F03BFD3946404606F081FA50467E
:1049C00086225D21FEF7D9FC132206A95046ADF8D8
:1049D000182009F057FF5146404606F071FA484644
:1049E000FD222121FEF7C9FC0622ADF81420072282
:1049F00005A9ADF81820484606AA09F075FD4846F5
:104A0000A4F84461FFF714F94FF0FF33C4E95233BF
:104A100004F5AA734046C4F83431494606F050FA0A
:104A2000204609B0BDE8F08F847A02083882020877
:104A3000A8810208CC7502086C7A02086148000857
:104A40007047000030B5164D2C6814F001048FB08B
:104A5000BFF35B8F21D128461FF044FBE8B13F2311
:104A60000993104B0893104B104911480A94CDE953
:104A7000064301220423CDE903321E230093292299
:104A8000CDE90B44CDE901440594FEF705FB094847
:104A900020F080FA28461FF031FB05480FB030BDEA
:104AA000601D0020F8AF020814B00208F4AA020842
:104AB000641D0020414A00087047000030B5164DC3
:104AC0002C6814F001048FB0BFF35B8F21D128460E
:104AD0001FF008FBE8B13F230993104B0893104BDC
:104AE000104911480A94CDE9064301220423CDE977
:104AF0000332232300931E22CDE90B44CDE9014468
:104B00000594FEF7C9FA094820F044FA28461FF038
:104B1000F5FA05480FB030BD901D0020FCAF02082B
:104B200018B0020834AD0208941D0020B94A0008EC
:104B30007047000030B5164D2C6814F001048FB09A
:104B4000BFF35B8F21D128461FF0CCFAE8B13F2399
:104B50000993104B0893104B104911480A94CDE962
:104B6000064301220423CDE90332322300931022AD
:104B7000CDE90B44CDE901440594FEF78DFA0948CF
:104B800020F008FA28461FF0B9FA05480FB030BDEA
:104B9000C01D002000B002081CB00208D8AE0208F8
:104BA000C41D0020314B00087047000030B5164D81
:104BB0002C6814F001048FB0BFF35B8F20D128461E
:104BC0001FF090FAE0B13F230993104B0893104B6C
:104BD000104911480A940122CDE906430423CDE986
:104BE000033219230093CDE90B44CDE90144059428
:104BF000FEF752FA094820F0CDF928461FF07EFA58
:104C000005480FB030BD00BFF01D002004B0020801
:104C100020B00208B8AF0208F41D0020A94B00081C
:104C20007047000030B5164D2C6814F001048FB0A9
:104C3000BFF35B8F20D128461FF054FAE0B13F2329
:104C40000993104B0893104B104911480A94012204
:104C5000CDE906430423CDE903320A230093CDE9CD
:104C60000B44CDE901440594FEF716FA094820F0FB
:104C700091F928461FF042FA05480FB030BD00BF39
:104C8000201E002008B0020824B00208C8AF0208A5
:104C9000241E0020214C00087047000030B5164D3E
:104CA0002C6814F001048FB0BFF35B8F20D128462D
:104CB0001FF018FAE0B13F230993104B0893104BF3
:104CC000104911480A940122CDE906430423CDE995
:104CD000033214230093CDE90B44CDE9014405943C
:104CE000FEF7DAF9094820F055F928461FF006FAD0
:104CF00005480FB030BD00BF501E00200CB00208A8
:104D000028B00208D8AF0208541E0020994C0008B1
:104D10007047000030B5164D2C6814F001048FB0B8
:104D2000BFF35B8F20D128461FF0DCF9E0B13F23B1
:104D30000993104B0893104B104911480A94012213
:104D4000CDE906430423CDE9033228230093CDE9BE
:104D50000B44CDE901440594FEF79EF9094820F083
:104D600019F928461FF0CAF905480FB030BD00BF39
:104D7000801E002010B002082CB00208E8AF020824
:104D8000841E0020114D000800207047002070474D
:104D90000EB403B503AB002153F8042B01930DF0BF
:104DA00031FB02B05DF804EB03B070470CB407B5FB
:104DB00004AB53F8042B01930DF024FB03B05DF812
:104DC00004EB02B070470000436C10B5044673B3A7
:104DD000038F2BB9184B194AC521194820F0BCF88C
:104DE000C38E00EB43035B8C0BB30FF078FA238F79
:104DF000012B03D8134B144ACB21EEE7E28E531C50
:104E00009BB2092B194688BFA3F10A0104EB4101AB
:104E100040F63F10498C814209D10A2B04EB420233
:104E200028BF002304EB4303508C58845184204650
:104E3000BDE810400FF056B97B6E0208846E020880
:104E40002F6F0208796F0208876F02080FF011B9FF
:104E500010B586B002AC84E806001A460AAB05938A
:104E60000193099B00932146089B0BF097FD06B028
:104E700010BD000038B518BB124B13481C6813490D
:104E8000B4B1226822440260626822440A60A268C7
:104E900014440F4B00221A8000F038F8054600F049
:104EA00033F80C4B1C600C4B1D600C4B188007E05A
:104EB0000B4B03600B4B0B600B4B1C68002CE8D1B9
:104EC00038BD00BFBC1E0020B41E0020B01E002054
:104ED000B81E0020C82C0120D02C0120CC2C012091
:104EE000A4B0020830B00208F4B10208044B1B68F9
:104EF00053F82100034B1B6803EB4000704700BFD1
:104F0000B01E0020B41E00201D20704700487047CE
:104F1000C01E002010B5FFF795FD0A4C2060FFF77A
:104F2000F9FE6060FFF77EFEA060FFF703FEE06021
:104F3000FFF7B4FE2061FFF739FE6061FFF7BEFDA9
:104F4000A06110BDC01E002010B5002404600C60DC
:104F500014601C6010BD704710B54FF4AE7104466C
:104F60001FF0BEF8204610BD10B50446D0F8580119
:104F700000F016F82046BDE810400CF00DBA000015
:104F800010B50446FDF7C8FB014B2360204610BD59
:104F9000B87A020800225F21026081808260704737
:104FA000036801330360704781807047B0F90400E3
:104FB0007047704704387047704710B51021044699
:104FC0001FF08EF8204610BDA0F10400F5E70000A8
:104FD00000228260024A026018324260C16070475B
:104FE0000C7B02088068FFF7DFBF8068FFF7DEBF39
:104FF00010B50446B0F93012C06BFFF7F3FF236819
:105000002046DB68BDE810401847000010B5034B90
:1050100003600446FEF7B9F8204610BD347B020851
:1050200010B50446FFF7F2FF20464FF413711FF04E
:1050300057F8204610BD000010B50446FEF72EFAC2
:10504000034B23600023C4F83432204610BD00BF58
:10505000347B0208F8B52A4B2A4D1A88044612B947
:105060002B6801332B60284B2849D3ED006A284B6D
:1050700009881B889FED277A581807EE900A36EEAC
:10508000877AF8EEE77AB4EEE77AF1EE10FA09DA09
:105090005B1A07EE903AF8EEE77AF4EEE76AF1EE83
:1050A00010FA17D81C4B1B8802F14001994211DB02
:1050B00023339A420EDC194E2B6837681849194A77
:1050C00008689F4211D810600F6033600CF0C8F878
:1050D000FDF7B6FB04F50E762B68134A0A2130461D
:1050E0000FF0A6FEC4F8D861F8BD984202D810604F
:1050F0000B60EBE71168994298BF1360E6E700BFC9
:10510000E61E0020301B002020000020240000208C
:10511000E41E002000001042140000202C1B002080
:10512000281B0020241B00205970020838B50446B3
:10513000C06BFFF75AFFA4F830022046FEF726F8AE
:10514000114B1B88A4F86831104B40F209121A80E9
:105150000F4BA0221A800F4A002304F50E7513602E
:105160000A210D4A28460FF063FE04F5C870C4F802
:10517000D8510DF071FA094B186803F091FC084BF7
:1051800001221A6038BD00BF14000020E61E002076
:10519000E41E0020301B002059700208341B002040
:1051A00028000020F7B50446454F464D464E00F511
:1051B000C8700DF051FAD4F834323A680133C4F8AB
:1051C000343253434FF49672B3FBF2F102FB1133C6
:1051D00053B903F0D3FA3388C3F18C035B00B0FBFF
:1051E000F3F202FB13002870384B1B680A2B84BFB4
:1051F00002233B603A68D4F8343253434FF496723A
:10520000B3FBF2F102FB1133C3F1F003304A3188F2
:105210009BB213802A782F4D01F11400024492B200
:105220001BB22D48A4F8D030A4F89C308B18A4F8F9
:10523000D230B4F8A2300280521A2848D21A002381
:10524000A4F89E2000681A46694603F0F9FB38B9B5
:1052500023496846FAF7CCFF10B9224B1B682B6034
:10526000214BD5ED007A93ED007A204B77EE877ACB
:1052700093ED007AC5ED007A77EE877AF5EEC07A85
:10528000F1EE10FA18D49FED1A7AF4EE477AF1EEA7
:1052900010FAC8BFF0EE477AC3ED007AFDEEE77A68
:1052A000204617EE903AA4F86A31FFF7D3FE201D8E
:1052B0000DF0D2F903B0F0BDDFED0E7AECE700BFE0
:1052C00028000020DC1E002024000020301B0020CD
:1052D000E61E0020E01E0020E41E0020341B0020FB
:1052E0005C700208180000201C0000202000002034
:1052F0000000914300000000704704387047704779
:1053000010B5102104461EF0EBFE204610BDA0F1A2
:105310000400F5E700228260024A0260183242600F
:10532000C1607047687B02088068FFF73DBE8068F7
:10533000FFF73CBE10B50446B0F97812C06BFFF71A
:10534000F3FF23682046DB68BDE8104018470000E3
:1053500010B5034B03600446FEF716FA204610BD55
:10536000907B020810B50446FFF7F2FF20464FF489
:1053700025711EF0B5FE204610BD000010B5044694
:10538000FEF766FA034B23600023C4F87C32204604
:1053900010BD00BF907B0208F8B52E4B2E4D1A8829
:1053A000044612B92B6801332B602C4BDFED2C6ABD
:1053B00093ED006A2B4B1B8807EE103A2A4BB8EE90
:1053C000C77AD3ED007A76EE266A77EE275AF4EEA6
:1053D000E56AF1EE10FA06DA77EEC77AB4EEE76A1C
:1053E000F1EE10FA12D8214B1B8802F140019942CC
:1053F0000CDB23339A4209DC1D4A2B68117881B1FA
:10540000002313701B4AC4F87C32137004F5207615
:105410002B68194A0A2130460FF00AFDC4F8406192
:10542000F8BD164E164937680868164A9F4207D8D5
:1054300010600F6033600BF013FFFDF701FAE5E732
:10544000984202D810600B60F5E71168994298BF46
:105450001360F0E7F81E0020301B00203800002009
:10546000000010423C000020F41E00201400002028
:105470002C000020E91E0020597002082C1B00207F
:10548000281B0020241B002038B50446C06BFFF702
:105490004EFFA4F878022046FEF777F9164B1B88DA
:1054A000A4F8D030154B00221A60154B40F20912B7
:1054B0001A80144B144A1A60144B154AC4F8CC31A4
:1054C00000231370134A1370134A04F520751360F8
:1054D0000A21124A28460FF0ABFC04F1F800C4F888
:1054E00040510DF0B9F80E4B186803F0D9FA0D4B86
:1054F00001221A6038BD00BF14000020F01E0020F9
:10550000F81E0020F41E002000002043F00040019F
:105510002C000020E91E0020301B002059700208DA
:10552000341B0020400000202DE9F7430446784D4D
:10553000784FDFF82082DFF82092774EF8300DF0B8
:105540008BF8D4F87C322A680133C4F87C32534398
:105550004FF49672B3FBF2F102FB1133ABB903F0D7
:105560000DF9B8F80030C3F16E035B00B0FBF3F245
:1055700002FB1300D9F800303870DA0705D432780E
:105580001AB943B1654B01221A70D9F800300A2BC1
:1055900084BF02232B602A68D4F87C329FED600A16
:1055A00053434FF4967207EE903AB3FBF2F502FBC9
:1055B0001535C5F1F005ADB2F8EE677A594A0FFA24
:1055C00085F927EE800AA4F87491A4F84891158013
:1055D0001EF012FEB8F800203B781344143307EE97
:1055E000903AF8EEE77AB3EE0E7A77EE877A4E4B82
:1055F000C3ED007AE0EE077A4C4B07EE102AB8EEC6
:10560000C77AC3ED007A77EE876A37EEC77AFDEE88
:10561000E66A302D16EE903AA4F87631B4F94E31A0
:10562000434D06EE903AF8EEE66A37EE667ABDEE46
:10563000C77A17EE103AA4F84A3154D1374B1A788A
:10564000002A50D00122327000221A700823D5EDB2
:10565000007AA4F8CC31B3EE017A77EEC77AFDEE8A
:10566000E77A17EE903A1BB23248A4F8CE31002305
:105670000068314E1A46694603F0E2F938B92F49FD
:105680006846FAF7B5FD10B92D4B1B6833602D4BFA
:10569000D6ED007A93ED007A77EE877A95ED007A71
:1056A000C6ED007A77EE877AF5EEC07AF1EE10FA61
:1056B0002AD49FED257AF4EE477AF1EE10FAC8BFAE
:1056C000F0EE477AC5ED007AFDEEE77A204617EE58
:1056D000903AA4F8D230FFF75FFE201D0CF0BCFF1B
:1056E00003B0BDE8F0833378002BAFD10B4B1B78B0
:1056F00023B19FED167AA4F8CC91AEE7F023A4F87D
:10570000CC314FF4A073AFE7DFED117ADAE700BFD9
:1057100040000020E81E00202C000020E91E002090
:10572000CDCC4C3DF81E0020F01E0020F41E0020C1
:1057300038000020341B0020EC1E00205C700208A2
:10574000300000203400002000009143000020427F
:10575000000000003C000020301B0020704704388F
:105760007047704710B5102104461EF0B9FC204662
:1057700010BDA0F10400F5E700228260024A026039
:1057800018324260C1607047C47B02088068FFF72E
:105790000DBC0368DB68184710B5034B0360044673
:1057A000FEF7EDF9204610BDEC7B020810B504466B
:1057B000FFF7F2FF20464FF4B3611EF091FC204644
:1057C00010BD000010B50446FEF774FA014B2360CB
:1057D000204610BDEC7B020838B50446C06BFFF7CD
:1057E000D5FFA4F858052046FEF7CAF90F4B04F27E
:1057F00034451968284605F0D5F828460CF02CFFEA
:105800000B4B04F503751968284605F0CBF82846BC
:105810000CF022FF074B04F548742046196805F088
:10582000C1F82046BDE838400CF016BF2C1B002004
:10583000281B0020241B0020704704387047704745
:1058400010B5102104461EF04BFC204610BDA0F1FF
:105850000400F5E700228260024A026018324260CA
:10586000C1607047207C02088068FFF79DBB80689C
:10587000FFF79CBB10B50446B0F93012C06BFFF7C0
:10588000F3FF23682046DB68BDE81040184700009E
:1058900010B5034B03600446FEF70CFC204610BD18
:1058A000487C020810B50446FFF7F2FF20464FF48B
:1058B00013711EF015FC204610BD000010B5044603
:1058C000FEF75CFC034B23600023C4F8343220460F
:1058D00010BD00BF487C0208F8B5294B294D1A8835
:1058E000044612B92B6801332B60274BDFED276A82
:1058F00093ED006A264B1B8807EE103A254BB8EE55
:10590000C77AD3ED007A76EE266A77EE275AF4EE60
:10591000E56AF1EE10FA06DA77EEC77AB4EEE76AD6
:10592000F1EE10FA17D81C4B1B8802F14001994286
:1059300011DB23339A420EDC184E2B683768184966
:10594000184A08689F4211D810600F6033600BF04E
:1059500087FCFCF775FF04F50E762B68124A0A21C6
:1059600030460FF065FAC4F80C62F8BD984202D8D0
:1059700010600B60EBE71168994298BF1360E6E78F
:10598000081F0020301B00204C00002000001042A7
:1059900050000020041F0020140000202C1B0020B9
:1059A000281B0020241B00205970020838B504462B
:1059B000C06BFFF75CFFA4F830022046FEF77BFBCC
:1059C000124B1B88A4F89C31114B00221A60114B1A
:1059D00040F209121A80104B104A1A60104A002334
:1059E00004F50E7513600A210E4A28460FF020FABE
:1059F00004F5E270C4F80C520CF02EFE0A4B186845
:105A000003F04EF8094B01221A6038BD1400002043
:105A1000001F0020081F0020041F0020000020435A
:105A2000301B002059700208341B00205400002055
:105A3000F7B50446594F5A4D5A4E00F5E2700CF036
:105A40000BFED4F834323A680133C4F8343253438D
:105A50004FF49672B3FBF2F102FB113353B902F02B
:105A60008DFE3388C3F16E035B00B0FBF3F202FBE3
:105A7000130028704C4BD4F834221B689FED4B0A5E
:105A80000A2B84BF02233B603B684FF496715A4354
:105A900007EE902AB2FBF1F301FB1323C3F1F003ED
:105AA0004349F8EE677A9BB20B801BB227EE800A5F
:105AB000A4F80431A4F8D0301EF09EFB32882B7875
:105AC0003C483D4D00681344143307EE903AF8EE1D
:105AD000E77AB3EE0E7A77EE877A384BC3ED007A29
